S01D0000723633335F646D312D31322D4F6D6E6961732D34322E73726563E1
S11300000C9404020C9421020C94E8050C94210233
S11300100C9421020C94D1050C9421020C9421021D
S11300200C9421020C9421020C9421020C942102C0
S11300300C9421020C9421020C9441040C9421028E
S11300400C9421020C9421020C9421020C942102A0
S11300500C9421020C9421020C9421020C94210290
S11300600C9421020C9421020C9421020C94210280
S11300703139363930373230303236360001050402
S113008014101115FF3FB1333426013678257A3424
S1130090F326F42E633288335D336232DB30F62E7E
S11300A07931CD2E942F9D2C802CEE2B092BEA290F
S11300B0492AC1287C28C62626265C257324732356
S11300C06522F421CA209F1FF71EC91D0E1DE61BC1
S11300D0231B081AF8183A183917431658154214EE
S11300E03D13761262116210740F960E860D8C0CFD
S11300F0A60B9D0AAB09B608C107CD06DC05DC04D6
S1130100E403F302FF01FF01FF01FF01FF01FF010F
S1130110FF01FF01FF01FF01FF01FF01FF01FF01DB
S1130120FF01FF01FF01FF01FF01FF01FF01FF01CB
S1130130FF01FF01FF01FF01FF01FF01FF01FF01BB
S1130140FF01FF01FF01FF01FF01FF01FF01FF01AB
S1130150FF01FF01FF01FF01FF01FF01FF01FF019B
S1130160FF01FF01FF01FF01FF01FF01FF01FF018B
S1130170FF01FF01FF01FF01FF01FF01FF01FF017B
S1130180FF01FF01FF01FF01FF01FF01FF01FF016B
S1130190FF01FF01FF01FF01FF01FF01FF01FF015B
S11301A0FF01FF01FF01FF01FF01FF01FF01FF014B
S11301B0000000000000000000000000000000003B
S11301C0000000000000000000000000000000002B
S11301D0000000000000000000000000000000001B
S11301E0000000000000000000000000000000000B
S11301F000000000000000000000000000000000FB
S113020000000000000000000000000000000000EA
S113021000000000000000000000000000000000DA
S113022000000000000000000000000000000000CA
S113023000000000000000000000000000000000BA
S113024000000000000000000000000000000000AA
S1130250000000000000000000000000000000009A
S1130260000000000000000000000000000000008A
S1130270000000000000000000000000000000007A
S1130280000000000000000000000000000000006A
S1130290000000000000000000000000000000005A
S11302A0000000000000000000000000000000004A
S11302B00000000005000D0015001D00270031009E
S11302C03C00470053005F006C007A0089009800EE
S11302D0A700B800C900DA00EC00FF00010001002B
S11302E001000200020003000300040005000600F0
S11302F00700080009000A000C000D000F001000A0
S113030012001400160018001B001D00200022001B
S1130310250028002B002E003100350038003B005A
S11303203F004200460049004D0050005300570072
S11303305A005D00600062006400670068006900A4
S11303406A006B006A0069006800650062005E0074
S1130350590053004C00430039002E0021002300B3
S11303602500270029002B002E0030003300350023
S113037038003B003E004100440048004B004F0061
S1130380530056005B005F00630068006C0071005E
S113039076007B00810087008C00920099009F000A
S11303A0A600AC00B300BB00C200CA00D200DA0051
S11303B0E300EC00F500FE00080112011C01270116
S11303C032013D014801540160016D017A01870148
S11303D09501A301B101C001CF01DF01EF01FF01CC
S11303E0F501E501D501C501B1019D018701710147
S11303F05901410127010B01ED00CF00B1008F002D
S11304006C004A002600000011241FBECFEFD4E088
S1130410DEBFCDBF11E0A0E0B1E0E0EDF0E302C04B
S113042005900D92AC34B107D9F722E0ACE4B1E009
S113043001C01D92A330B207E1F70E942A170C9461
S113044066180C940000CF93DF9300D000D000D046
S1130450CDB7DEB7909179012091AB013091AC0119
S11304602A523C4009F492E0843019F460937A01F2
S113047021C06623F9F0823019F427E9261B622F84
S113048026E0E3E2F1E0DE01119601900D922A9557
S1130490E1F7E82FF0E03197EE0FFF1F21E030E0A5
S11304A02C0F3D1FE20FF31F0190F081E02DE90FA7
S11304B0F11D608326960FB6F894DEBF0FBECDBF44
S11304C0DF91CF910895813019F410927C01089541
S11304D0823019F460937B010895833019F460939A
S11304E078010895843011F460931B01089560939A
S11304F01E01089581E0089561116093210108951A
S1130500662389F0813061F48091AE019091850178
S1130510891B681B6093850182E08093220103C0DC
S1130520635E6093200180912001873418F086E493
S11305308093200108956093720108958CEF93E0F5
S11305400197F1F70895FF920F931F93CF93DF93D1
S1130550EC018B01F22E2091AB013091AC01232BE5
S113056031F0E091AB01F091AC01842F0995D09367
S1130570AC01C093AB01CD2B39F0E091AB01F0910C
S1130580AC01B8018F2D099581E080937E01DF9144
S1130590CF911F910F91FF900895DC0190918401F8
S11305A0983098F4E92FF0E0EE0FFF1FED50FE4F66
S11305B0B183A0839F5F9093840128E049E0CD013B
S11305C00E94A3028091840108958FEF0895CF9330
S11305D0DF93E0918401EE2359F0E150E09384012C
S11305E0F0E0EE0FFF1FED50FE4FC081D18102C03D
S11305F0C0E0D0E0E0918401EE2349F0F0E03197CF
S1130600EE0FFF1FED50FE4F8081918102C080E00C
S113061090E02AE049E060E070E00E94A302CE018D
S1130620DF91CF9108950F931F93CF93DF93EC0144
S11306308B010E94E702B801CE010E94CD02DF9136
S1130640CF911F910F910895CF93C0911C01C111B7
S11306501BC0813C39F460E070E086E29DE00E94BA
S1130660130315C0823C39F460E070E08AE493E03F
S11306700E9413030CC0873B49F460E070E08CE3F4
S11306809CE00E94CD0203C0C1E001C0C1E08C2FF8
S1130690CF910895813C41F460E070E086E29DE0F2
S11306A00E94130380E00895823C41F460E070E00E
S11306B08EEC9EE00E94130380E00895873B41F492
S11306C060E070E082E49CE00E94CD0280E0089546
S11306D081E008959093B3018093B2017093B501C2
S11306E06093B401089590E001C09F5F903168F475
S11306F0292F30E0F901EE0FFF1F2E0F3F1FF901E4
S1130700EA54FE4F20812111F0CF903160F4292F5B
S113071030E0F901EE0FFF1FE20FF31FEA54FE4F22
S1130720808372836183089520E01CC0822F90E04F
S1130730DC011196AD01440F551FA40FB51FAA5437
S1130740BE4F3C91FC01EE0FFF1F8E0F9F1FFC015B
S1130750EA54FE4F308311968D919C9112979283A7
S113076081832F5F2F3010F3822F90E0FC01EE0F76
S1130770FF1FE80FF91FEA54FE4F10821282118204
S113078008950F931F93CF93DF93D82F8B01C091BC
S11307908401C1500EC0EC2FEE0FFF0BED50FE4F45
S11307A00190F081E02DB8018D2F0995882329F05F
S11307B0C150CC2384F781E001C080E0DF91CF9168
S11307C01F910F91089508C06091B7017091B8010D
S11307D00E94C1030E9494038091B6018111F4CF59
S11307E008950E9473030895BC018091EE010E9454
S11307F0F10308951092EE0110928C0110928B0176
S113080081E080937E0108959091EE019068909329
S1130810EE01803171F490619093EE01292F2F70D5
S113082030E02F30310594F49F5F9093EE0181E026
S1130830089581110DC0892F8F7E8093EE0195FF5D
S113084009C080648093EE0181E0089581E00895F9
S113085080E0089581E008950FC0F89488ED8FBD7D
S113086022E023BF7894E8EAF7E03197F1F7F894AF
S11308708FBD13BE7894892F9FEF980F8111EDCF10
S113088008951F920F920FB60F9211242F933F9346
S11308908F939F93AF93BF93EF93FF9380918901BD
S11308A08823E9F0E091880120B131B1F0E0EE0F46
S11308B0FF1FDF01A151BE4F2D933C93E851FE4F22
S11308C0808191818217930708F4019628173907CC
S11308D008F401979183808381E080938A0181E009
S11308E080938901FF91EF91BF91AF919F918F9177
S11308F03F912F910F900FBE0F901F90189510925B
S11309008A0120B1229526952695237081B190E025
S1130910880F991F880F991F820F911D90917F0155
S1130920890F80937F0180918701882309F434C162
S1130930109287018091880190918101992329F077
S113094093B19F7793B910928801811140C080912F
S11309502201882349F08091EF019091F001909356
S1130960E9018093E80104C08091E8019091E901D4
S11309704096807E9695879561EC72E00E940218FD
S113098080912101680F67506093860180916F0107
S1130990882321F0815080936F010AC06D3140F4A7
S11309A060E070E084E00E94F10385E080936F01D1
S11309B0809181018111E7C08EE884B981E0809340
S11309C088011092890183B1886483B9DCC08130C5
S11309D009F0D9C080912201882301F14091F101ED
S11309E05091F2015093EB014093EA0180E014C06E
S11309F0E82FF0E09A01205F3F4F36952795329516
S1130A0022952F7023273F702327EE0FFF1FE15AF3
S1130A10FE4F318320838F5F883050F38091EA0149
S1130A209091EB01409696958795929582958F705B
S1130A3089279F7089279C0136952795E091850128
S1130A400E2E000CFF0B2E0F3F1F2A503140309307
S1130A50AF012093AE0160915E01A62FB0E0AA0F12
S1130A60BB1FA15ABE4F2D913C911197AC01421B63
S1130A70530B9A018D939C936F5F677060935E0133
S1130A80220F331F220F331F820F931F2091200147
S1130A9030E02D5E3E4F2E1B3F0B29503109220FB3
S1130AA0331F821B930B20E009C01816190614F497
S1130AB0019703C099230CF401962F5F2330A8F308
S1130AC01816190664F5552354F120915D01121688
S1130AD024F4281B20935D014DC0880F991F0397B0
S1130AE0BC010024769567950794769567950794DD
S1130AF0762F602D91FF02C061587F4F660F672FDC
S1130B00661F770B1616170614F061E070E088E193
S1130B10861B80935D0185E00E94F1032BC09C013C
S1130B202C5F3F4FF2F45523E4F420915D0122231E
S1130B3034F4281B822F845080935D011BC024EE63
S1130B40281B20935D016CEF7FEF681B790B759573
S1130B506795809186018F3168F086E00E94F103E9
S1130B6009C0809186018E3128F060E070E087E052
S1130B700E94F10386E884B91092880110928901D9
S1130B8083B1886483B980912201882329F08091FC
S1130B9022018150809322010895A89580E480BFAA
S1130BA008951F920F920FB60F9211248F9381E034
S1130BB0809383018F910F900FBE0F901F90189513
S1130BC08FB18095881F8827881F8093B10108956D
S1130BD01F920F920FB60F9211248F9381E080938E
S1130BE082018F910F900FBE0F901F9018958093E4
S1130BF0B101882341F080E10E94040480E090E088
S1130C000E94F40309C080E00E94040480918B01D7
S1130C1090918C010E94F40310928C0110928B012C
S1130C200895CF93DF931092830180918B0190916B
S1130C308C019C012F5F3F4F88279078822B932B48
S1130C4090938C0180938B01C091B1010E94E005C7
S1130C50C81721F0109281010E94F705C0918B0101
S1130C60D0918C0180918101882309F1BE0183E038
S1130C700E94F1030E94E303CF73DD27CD2B09F01B
S1130C805FC010925C0186E884B9109288011092CA
S1130C90890183B1886483B9E1E6F0E080818260F0
S1130CA0808382B1886082B987EE83B939C080912C
S1130CB0EE01807F803B31F460E070E081E00E94CF
S1130CC0F10304C0BE0181E00E94F1038091EE01B2
S1130CD084FF14C085FF04C0CE010E94F40320C029
S1130CE06897F0F010928C0110928B0180628093CF
S1130CF0EE0180E090E00E94F40312C0882381F0AA
S1130D0085FF03C00E94FA030BC0629748F0806419
S1130D108093EE0180E090E00E94F4030E94FA03C5
S1130D2080915C01811106C083B1886483B981E03C
S1130D308093870180915C018F5F8F7180935C0148
S1130D40DF91CF910895A89583E480BF83B18F7715
S1130D5083B90E94E0058111FCCF0E94FA038CB78D
S1130D6088608CBF10928A011092830110928201D4
S1130D7020C086B78F79806486BF86B7806186BFBE
S1130D80889586B78F7E86BF8091820181111092EB
S1130D90810180918A01882339F081E080932201C6
S1130DA0809387010E947F048091830181110E94B6
S1130DB01106809181018111DCCF82E080932201B0
S1130DC08CB7877F8CBF86E884B910928801109213
S1130DD0890183B1886483B9E1E6F0E080818260AF
S1130DE0808382B1886082B987EE83B90E94CD0581
S1130DF0089586B78F7986BF86B7806186BF889548
S1130E0086B78F7E86BF08950F931F93CF93DF938A
S1130E10C091EC01D091ED0100916800109169003E
S1130E2020918001215080911F01811119C030E06F
S1130E30C90182959295907F9827807F9827821B7D
S1130E40930B9C0122953295307F3227207F3227E5
S1130E50820F931F66E970E00E940218262F36C0A5
S1130E608F3FD1F430E0C90182959295907F982705
S1130E70807F9827821B930B9C0122953295307FAB
S1130E803227207F3227820F931F66E970E00E9489
S1130E900218262F20951AC0282F30E0C901880F88
S1130EA0991F820F931FAC01440F551F4295529511
S1130EB0507F5427407F5427840F951F820F931F20
S1130EC063E670E00E9416182FEF260FBE0180E043
S1130ED090E030E040E050E00E94DD1761587F4F21
S1130EE08F4F9F4F2FEF30E040E050E00E942A18D0
S1130EF0CE01821B930B0217130728F4201B310B1E
S1130F00820F931F0BC00817190738F4801B910B2D
S1130F10280F391FC801890101C0890190936D0010
S1130F2080936C0010936B0000936A00892B21F06E
S1130F3081B3816081BB03C081B38E7F81BB012BF0
S1130F4021F081B3826081BB03C081B38D7F81BBFB
S1130F50DF91CF911F910F910895E0910701F091D6
S1130F6008013196FB70F460F0930801E0930701E7
S1130F7080917F018B5A80937F01E49180917F015E
S1130F808E0F08951F93CF93DF9382E00E942C0469
S1130F90F89480E890E00E944C18853A79F07894AF
S1130FA080E011C0C12FD0E0CE018F579F4F0E9427
S1130FB04C18C357DE4F88831F5F01C010E01E31F9
S1130FC088F3789481E0DF91CF911F910895CF93B6
S1130FD082E00E942C04F894C0E00BC08C2F90E0B7
S1130FE0FC01E357FE4F60818F579F4F0E945418B6
S1130FF0CF5FCE3198F365EA80E890E00E94541800
S11310007894CF91089580918001823038F4F894D7
S113101088ED8FBD82E083BF789408958A3038F4D8
S1131020F89488ED8FBD81E083BF78940895F89497
S113103088ED8FBD13BE78940895882319F081300C
S113104059F014C080B38B7F80BB82B38B7F82BB8B
S113105081B38B7F81BB089580B38B7F80BB82B3C8
S1131060846082BB81B3846081BB089580B3846053
S113107080BB82B3846082BB81B3846081BB0895EA
S1131080CF93DF9300D01F92CDB7DEB795E099835D
S113109094E09A8393E09B8390E051C0492F50E001
S11310A0BA01660F771F282F30E002C035952795C7
S11310B06A95E2F72370E1E0F0E0EC0FFD1FE40F26
S11310C0F51F4081222319F02130A1F026C050B32E
S11310D021E030E002C0220F331F4A95E2F7209549
S11310E0352F322330BB32B3322332BB31B3232307
S11310F021BB24C050B321E030E002C0220F331FD3
S11311004A95E2F7322F3095352330BB32B3322B78
S113111032BB31B3232B21BB11C050B321E030E0EB
S113112002C0220F331F4A95E2F7352F322B30BB12
S113113032B3322B32BB31B3232B21BB9F5F9330AD
S113114008F4ACCF0F900F900F90DF91CF910895DA
S1131150CF93C82F8091800181110BC0CC2349F01B
S113116080911E01C81728F40E94A80882E00E94FA
S11311702C04C0938001C093B0018091810181113E
S11311800DC00E94400891E0C11101C090E081E0CF
S1131190C73408F480E0890F0E941D08C11114C0EF
S11311A01092ED011092EC0118BA10926D00109299
S11311B06C0010926B0010926A0081B38E7F81BB29
S11311C081B38D7F81BB34C08FEF8C0F90E0880F8B
S11311D0991FFC01E452FD4F259134913093ED01A8
S11311E02093EC01FC01E055FE4F2591349128BB7E
S11311F0FC01EC57FF4F65917491AB0180915B0149
S1131200882351F020916E0030916F00CA01805400
S113121091098217930790F37093690060936800B3
S113122080915B01811104C010926F0010926E00D6
S11312300E940407C0935B010E940308CF910895A4
S1131240CF938091B00190918001891718F48FEFAA
S1131250890F04C0981710F481E0890FAFEFA80F2D
S11312602A2F30E0220F331FA90144525D4FFA01A7
S113127065917491A91788F4E091EC01F091ED0166
S1131280EF2B59F46F3F91E0790739F46FEF71E078
S11312907093ED016093EC0115C0E091EC01F091C5
S11312A0ED01E617F70730F43196F093ED01E09382
S11312B0EC0108C06E177F0728F43197F093ED0115
S11312C0E093EC0120553E4FF90165917491A8B368
S11312D0B0E0A617B70720F498B39F5F98BB08C087
S11312E0E8B3F0E06E177F0718F498B3915098BBF9
S11312F0FA01659174914091EC015091ED016417EC
S1131300750771F448B350E0F901259134914217FF
S1131310530731F4C091B0010E94A808C093B001F2
S1131320CF910895883041F41092E701109255014D
S113133080E00E94A80841C0813031F580915501B8
S1131340811109C060327105C0F18F5F809355012E
S11313500E94FA0332C08130A1F46B3B710538F06E
S11313608F5F8093550180E00E94A80826C0611514
S1131370710519F16270862F880F8E5E0E94A8088D
S11313801CC00E94E70219C0813811F0813EA9F403
S113139091E090935501813E31F48091E701865F9D
S11313A08093E70105C08091E7018F5F8093E70197
S11313B00E94FA038BE40E94A80880E00895982F05
S11313C0990F88230CF49095892F0895F89488ED4B
S11313D08FBD88E880BF7894A895FFCF80918A015B
S11313E081110E947F048091830181110E94110662
S11313F00895CF93DF9326C080917E01811128C088
S113140080918001823058F4F89488ED8FBD82E099
S113141083BF789482EC91E00197F1F709C0F894C6
S113142088ED8FBD13BE789488E097E00197F1F7BB
S1131430F89488ED8FBD13BE78940E94EE090E9443
S1131440E303CE01EC012197892BB1F681E001C0C1
S113145080E0DF91CF910895CF93DF93C82F81115E
S113146003C0CF5FD8E011C0D6EA0FC086E40E9463
S1131470A8088D2F90E00E94F90980E00E94A80836
S11314808AEF90E00E94F909C150C111EFCF8AE9B7
S113149092E00E94F909DF91CF9108950F931F9371
S11314A0CF93DF9364E60E94F617282F892FC22F6B
S11314B06AE00E94F617D82F192F082F222319F05B
S11314C0822F0E942C0AC11102C0002319F08D2F13
S11314D00E942C0A812F0E942C0ADF91CF911F9128
S11314E00F910895809186010E944E0A089580917B
S11314F0790190911C01911182E090E0FC01EA5E77
S1131500FE4F208120931A01FC01ED5EFE4F808185
S1131510809319010895FF920F931F93CF93DF9344
S1131520EC010E94770A30911A0160911901E0914F
S11315301C01F0E0EF5EFE4F008180917901882369
S113154049F0013039F4832F90E0860F911D959571
S113155087953FC0432F50E0C417D507ACF1462F01
S113156050E04C175D0794F1811102C08C2F31C0FB
S1131570162F131BE02FF0E03197812F90E0BF016D
S11315800E941618F62E6093AD01632F20E018C058
S1131590612F70E0822F90E00E94CC17BF010E945F
S11315A00218630FDE01A61BB1091AF4B195A195C7
S11315B0B1094F2D469550E04A175B074CF42F5F55
S11315C0201730F3862F05C0832F03C0862F01C058
S11315D0862FDF91CF911F910F91FF9008958093F3
S11315E07D010E94A8080895CF93DF930E94C2074B
S11315F0882309F464C0EDE8F1E0808180937901E7
S1131600218186E191E0DC012C932281C3E1D1E0C8
S11316102883238140E151E0DA012C932481DC0109
S113162011962C93258129832681DA0111962C9316
S11316302781DC0112962C9380858A838185DA01C7
S113164012968C93828580931C01838580937A0102
S1131650848580937801858580931B01868580939A
S11316607C01878580937B0180898093E601818951
S113167080931F01828980931E01838980930C01CA
S11316808489AAE0B1E08C93858911968C9386892C
S113169080930901878980930D01808D80932001B7
S11316A0818D80938501828D80932101838D809328
S11316B00F01848D80930E01858D80937201DF91DB
S11316C0CF910895CF93DF93EDE8F1E08091790114
S11316D0808386E191E0DC012C912183C3E1D1E098
S11316E02881228340E151E0DA012C912383DC013B
S11316F011962C91248329812583DA0111962C914A
S11317002683DC0112968C9187838A818087DA0193
S113171012968C91818780911C01828780917A0135
S1131720838780917801848780911B0185878091CC
S11317307C01868780917B0187878091E601808B7D
S113174080911F01818B80911E01828B80910C01FD
S1131750838BAAE0B1E08C91848B11968C91858B5C
S113176080910901868B80910D01878B80912001E6
S1131770808F80918501818F80912101828F80915A
S11317800F01838F80910E01848F80917201858F68
S11317900E94E707DF91CF9108958830A9F4109251
S11317A0560180E00E94A8088091B10181114AC0CD
S11317B0809156018F5F8093560160E070E082E96A
S11317C099E00E94CD023EC0982F907F903BE1F4B7
S11317D0209156014217A0F0CB016DE570E00E9404
S11317E00218029749F42F5F20935601421750F1D3
S11317F088E30E94A80826C082E10E94A80822C0AB
S113180080E00E94A8081EC0903E81F48091560199
S1131810882349F0481738F060E070E082E999E0E5
S11318200E94CD020FC00E94E7020CC08A3051F41E
S11318306091E70180915601F90109950E94620BBC
S11318400E94E70280E0089523E232E043E00E9430
S1131850CD0B089523E232E044E00E94CD0B0895BD
S113186023E632E044E00E94CD0B089527E732E0FE
S113187041E00E94CD0B08952CE732E041E00E9444
S1131880CD0B089520E832E042E00E94CD0B08958C
S11318902BE932E041E00E94CD0B0895409186018E
S11318A04D31A0F080E001C08E5F282F30E0F901B7
S11318B0E45CFE4F90814917B8F7F901E55CFE4FEF
S11318C0E081F0E0E358FF4F8491089580E00895AB
S11318D00F931F93CF93DF939091860191509C3186
S11318E038F480E00E94400880E00E941D0897C000
S11318F0C82FC295CF70D82FDF70809181018111DC
S113190003C0C33008F0C2E0D730D0F400915401D2
S113191010E00F5F1F4F0E94AD0765E00E94F617AD
S11319209801290F311DC90166E070E00E94161864
S113193080935401ED2FF0E0E358FF4FE4914CC045
S1131940D730D1F40091540110E00F5F1F4F0E9473
S1131950AD0765E00E94F6179801290F311DC901F2
S113196066E070E00E94161880935401E82FF0E0BE
S1131970E358FF4FE49130C0D830D1F48091810115
S1131980811102C083E001C08FE0682351F480918B
S1131990540190E0019666E070E00E94161880936E
S11319A05401E0915401F0E0E358FF4FE49114C076
S11319B080918101882321F00E944E0CE82F0CC0F5
S11319C0862F869563E00E94F617E92FF0E0EE0F6C
S11319D0FF1FE358FF4FE491C33079F48091530122
S11319E090E0019663E170E00E9402188093530135
S11319F0A82FB0E0A75DBE4FCC91CC2319F0C13025
S1131A0039F003C0C0E0E0E004C0EE0FC2E001C062
S1131A10C1E08E2F0E9440088C2F0E941D08DF9188
S1131A20CF911F910F910895CF93C091800186E4C7
S1131A308C0F873908F080E00E94A80883E00E9498
S1131A402C048C2F0E94A808CF9108950F931F9304
S1131A50CF938B0190911901883091F480E00E941A
S1131A60A80860E080910F010E94680C1092760132
S1131A70012B09F081C181E080938101C0E089C11B
S1131A80813061F46931710508F478C18093810172
S1131A9080910F010E94680CC0E07BC1833009F083
S1131AA050C040917C01442301F180917B0190E07E
S1131AB09C0122953295307F3227207F3227281BC4
S1131AC0390BC90182959295907F9827807F98273A
S1131AD0821B930B880F991F6817790730F0409386
S1131AE01D018091E60180931F01602F80910F01F9
S1131AF00E94680CC09172018C2F90E09C01229589
S1131B003295307F3227207F3227281B390BC901B9
S1131B1082959295907F9827807F9827821B930BBC
S1131B20880F991FCC2309F434C18017910708F05A
S1131B3027C160E070E081E09FE00E941303C0E0F1
S1131B4028C1813BF1F481E090E00E948B0A0E945D
S1131B50A808C0917801C11115C180917901811142
S1131B6003C088E190E002C080E090E00817190704
S1131B7008F40FC161E070E082EC90E10E9413036D
S1131B8008C1813E41F461E070E082EC90E10E9482
S1131B901303C0E0FEC0813849F480911D0190E038
S1131BA00E948B0A0E94A808C0E0F3C0813C49F45B
S1131BB06091800170E082EC90E10E941303C0E028
S1131BC0E8C0823BC9F420911B0180911C01811162
S1131BD020917A0180911F01813021F08F3F21F4FF
S1131BE086E903C086E901C0892F2111982F892F26
S1131BF00E94A808C0E0CDC0823E29F480E00E9483
S1131C00A808C0E0C6C0823C41F466E970E082ECFA
S1131C1090E10E941303C0E0BCC0833929F480E042
S1131C200E94A808C0E0B5C0833C41F460E070E0C5
S1131C3084E293E00E941303C0E0ABC0843C51F4FF
S1131C400E94140D60E070E081E09FE00E941303A5
S1131C50C0E09FC08D3B11F40E94E6098F3C41F423
S1131C6060E070E08AE792E00E941303C0E091C054
S1131C708A3BA9F4672B99F4C0911C01CC2341F051
S1131C800E94140D10921C010E94620BC0E081C0DE
S1131C9060E070E08AE29CE00E94CD027AC0C091CC
S1131CA01C01C11171C08A3C41F40E94140D81E0F1
S1131CB080931C010E94620B6CC0833B39F460E08A
S1131CC070E08EE994E10E94130363C0853C49F4FB
S1131CD00E94140D60E070E08AE695E10E9413030F
S1131CE058C0873CD9F420910F01922F92959F7090
S1131CF09F5F9370892F90E082959295907F9827AB
S1131D00807F98272F70822B80930F0160E00E94C0
S1131D10680C0E94620B0E94140D3BC0873BD1F4F7
S1131D2081E080937701C8018F739927892B61F42F
S1131D3020910F01822F8F708F5F6BE00E94F61746
S1131D40207F292B20930F01602F80910F010E9487
S1131D50680C1FC0873E29F4109277010E94620B21
S1131D6018C0893B99F4012B99F460E070E086E394
S1131D709CE00E94CD020DC0C0E00BC0C0E009C0D1
S1131D80C0E007C0C0E005C0C1E003C0C1E001C0BD
S1131D90C1E08C2FCF911F910F910895813C41F4A4
S1131DA060E070E086E29DE00E94130380E0089505
S1131DB0823C41F460E070E084E293E00E9413030B
S1131DC080E00895813B59F4CB016EE370E00E94FA
S1131DD00218892B91F40E94140D80E00895813E2D
S1131DE071F4CB016EE370E00E9402186F5F6093A0
S1131DF00D010E94620B80E0089580E0089581E067
S1131E0008950F931F93CF93DF93C82F8B01873BC4
S1131E1021F480E00E94A80821C080798039C9F4A7
S1131E20909116018C2F8F70823059F420911701F4
S1131E30921708F0292F80917C01811107C0822F0D
S1131E4005C080911701891708F0892F0E94A808FE
S1131E5005C0803819F480E00E94A808C83031F425
S1131E6060E080910E010E94680C47C0C13071F49B
S1131E700931110508F490C081E080938101602F3D
S1131E8080910E010E94680CD0E08BC0C33039F4FD
S1131E90602F80910E010E94680CD0E082C0C43C87
S1131EA0A1F4D0917C01DD2341F06D2F70E082EC30
S1131EB090E10E941303D0E074C060911D0170E0B2
S1131EC082EC90E10E9413036CC0C43B61F40E9455
S1131ED0140D1092EE0161E070E082EC90E10E943A
S1131EE01303D0E05EC0C53C41F466E970E082ECC7
S1131EF090E10E941303D0E054C0D0911C01D11191
S1131F004DC0CA3B39F460E070E088E49CE00E9474
S1131F10CD0247C0C73CE9F480910E01982F9295F9
S1131F209F7021E0290F922F9370292F30E0229582
S1131F303295307F3227207F32278F70822B809317
S1131F400E0160E00E94680C0E94620B0E94140D56
S1131F5028C0C73BD1F481E080937701C8018F7317
S1131F609927892B61F420910E01822F8F708F5F46
S1131F706BE00E94F617207F292B20930E01602F1F
S1131F8080910E010E94680C0CC0C73E49F4109267
S1131F9077010E94620B05C0D0E003C0D1E001C00C
S1131FA0D1E08D2FDF91CF911F910F910895CF93A1
S1131FB0C091800180E00E94A80883E00E942C0464
S1131FC08C2F0E94A808CF910895833CC1F480917E
S1131FD01F0188233CF08EEF80931F018FEF8093C5
S1131FE0050105C081E080931F0180930501809164
S1131FF080010E94A8080E94620B81E00895843B3E
S113200009F04CC0672B29F481E0809352011092AF
S1132010510180915201882309F45AC0809105012D
S1132020181644F490911F019E3F20F49F5F9093F3
S11320301F0109C088233CF480911F01823018F0ED
S1132040815080931F0180915101803461F48F5F2E
S11320508093510190911F0181E0892780931F0192
S11320600E94D70F11C02091500190911F01291394
S11320700BC0811102C00E94D70F809151018F3F84
S113208019F08F5F8093510180911F01809350015B
S1132090809180010E94A80880E00895843EB9F4EC
S11320A010925201809105018195809305018091E0
S11320B01F01811104C081E08093050104C08F3F9A
S11320C011F4809305010E94620B80E0089581E081
S11320D00895CF93C0911C01C1114AC0883039F4CE
S11320E010927601109274011092730148C0813BE2
S11320F061F48091760181508330E0F583E0809330
S1132100760180937501C1E03AC0853BB9F4CB01F7
S11321106EE370E00E940218892B89F580917601A4
S11321208A3F68F58B5F80937601809375011092E6
S11321307401109273010E94140D21C08130E1F4E6
S1132140809173019091740101969093740180932E
S1132150730188389E4098F01092740110927301B4
S113216080917601882351F081508093760107C0D5
S1132170C1E005C0C1E003C0C1E001C0C82F8C2F7D
S1132180CF910895BF92CF92DF92EF92FF920F9377
S11321901F93CF93DF93C82F8B01D0901A01C09067
S11321A0190180917901882319F0E090AD0102C0F2
S11321B0EE24E39480911B0190911C019111809174
S11321C07A018823C1F0813049F480911D018C1576
S11321D050F00F2EF6E9FF2EF02D06C00F2EF6E973
S11321E0FF2EF02D01C0FC2C80911F01813031F0B5
S11321F08F3F19F403C0FC2C01C0FC2CD091760154
S1132200B8018C2F0E946910B0907601BB2039F080
S1132210D11105C08091800180935A010BC0DD2348
S113222049F0B11007C060E070E086E29DE00E94D2
S113223013031AC2C83011F0CA30E9F410927101C4
S1132240CA3019F400911D0110E08D2D90E0801723
S1132250910738F48C2D90E00817190710F40093B7
S11322601D01C8010E948B0A0E94EF0A81E080933D
S11322700601B12CF9C1C13C41F460E070E086E292
S11322809DE00E941303B12CEFC1C23C91F48091F4
S113229080018F1520F48F2D0E94EF0A04C08091D5
S11322A01D010E94EF0A8091800180935A01B12C94
S11322B0DBC1C43C41F48FE780931F01809180010E
S11322C00E94A8084BC18FE48C0F823008F09BC099
S11322D0B0907901BB2041F0C80168E170E00E9430
S11322E00218892B09F0AFC1B11009C06091100127
S11322F070E0C8010E940218892B09F0B5C10115CC
S11323001105A9F4C23B21F48FEF8093060158C054
S1132310809180018C1520F08FEF8093060150C0CE
S1132320D81608F44DC081E08093060149C080911D
S1132330100190E0AC01440F551F440F551F480F86
S1132340591F9A01220F331F22953295307F32276D
S1132350207F3227241B350B220F331F2017310710
S113236040F4209180012C1520F08FEF809306011A
S113237027C09C01220F331F220F331F820F931F8C
S11323809C01220F331F22953295307F3227207F04
S11323903227A901481B590BCA01880F991F880FBE
S11323A0991F8017910760F480918001D81640F03E
S11323B00E94140D60E070E081E09FE00E9413032E
S11323C020918001809106016E2D70E0082E000C92
S11323D0990B0E94CC17820F911D0E948B0A809347
S11323E01D0190918001891721F0C81202C00E943A
S11323F0D70F80911D010E94EF0A80918001809384
S11324005A01B12C31C18FE18C0F823038F48091A4
S11324100601819580930601B12C26C1C13009F0D3
S113242055C00932110519F481E080930601BB20DF
S1132430A9F06B2D70E06150710980915A0190E010
S11324400E94CC176091750170E00E94161861110A
S113245001C061E06093B00160937D018091B0019F
S113246090E020918001821B910960915801709144
S113247059016F5F7F4F7093590160935801009722
S113248009F4E3C02CF4233830F440E051E010C0E8
S113249040E052E00DC040E450E00AC05695479534
S11324A09C01992314F42F5F3F4FC901959587959B
S11324B00097A1F74617570708F0C9C00E942009E2
S11324C01092590110925801B12CCEC0C530B9F404
S11324D080918001823408F4BCC090E0801B910B91
S11324E0282F8134910524F08739910518F403C00D
S11324F021E401C026E92093B001B12CB5C0C63057
S1132500C1F49091800180917D01981708F0A3C0D7
S1132510090F111D90E0801791073CF0013411055B
S113252014F0C80102C081E490E08093B001B12CA2
S11325309BC0C73099F49091B001809180018917B4
S113254028F48F5F8093B001B12C8EC0981708F0E7
S113255084C081508093B001B12C86C0B0901C011E
S1132560B1107DC0C53CC9F481E09091790191110D
S113257080E0809379010E94620B0E94D70F8091C2
S1132580800190E00E948B0A80931D010E94EF0A53
S11325908091800180935A0167C0C33BC1F4012B31
S11325A009F062C080911F0180935701882324F0B1
S11325B08EEF80931F0103C081E080931F018091FF
S11325C080010E94A8088F2D0E94EF0A4DC0C33ECF
S11325D069F48091570180931F01809180010E94CA
S11325E0A80880911D010E94EF0A3EC0C63C51F428
S11325F080E00E94A80860E070E08AE695E10E940D
S1132600130332C0C73B39F460E070E084E29CE01D
S11326100E94CD0229C0CA3C69F480918001809354
S11326207C0180911F018093E6010E94620B0E944D
S1132630140D1AC0CA3BB1F460E070E080E39CE082
S11326400E94CD0211C0B12C0FC0B12C0DC0B12C11
S11326500BC0B12C09C0B12C07C0B12C05C0BB24E0
S1132660B39402C0BB24B3948B2DDF91CF911F91FF
S11326700F91FF90EF90DF90CF90BF900895CF938C
S1132680C0E014C08C2F0E94A80883E190E00E944F
S1132690F9098C2F86950E94A80883E190E00E9496
S11326A0F9090E94E005882329F0CF5FC03450F374
S11326B081E001C080E08823D9F065E181E00E94D7
S11326C080020E94620BC6E908C08C2F0E94A808F1
S11326D084E090E00E94F909C150C111F6CF0AC00C
S11326E08C2F0E94A8088DE090E00E94F909C15047
S11326F0C111F6CFCF9108950F931F93CF93DF931A
S1132700C82F8B01D09176010E946910DD2359F006
S1132710D0917601D11107C060E070E086E29DE0BF
S11327200E94130305C1C83029F481E0809303019A
S1132730D0E0FEC0C23C21F410927601D0E0F8C093
S1132740C13B21F5012B69F4809102018F3520F002
S11327508FEF8093030105C0823018F481E08093E9
S11327600301D091020180910301D80FD09302019B
S1132770D11104C081E080930201DAC0D03608F49C
S1132780D0C08FE580930201D0E0D2C0C13E39F4BD
S113279080910301819580930301D0E0C9C0C23BBD
S11327A069F481E08093030180910201823008F48E
S11327B0BAC0815080930201D0E0BAC0C13009F0A0
S11327C0B4C00932110519F481E0809303018091AA
S11327D04F010E94DF0990E0EC01CC0FDD1F8C0F4C
S11327E09D1FEC01CC0FDD1FCC0FDD1F80914E012E
S11327F00E94DF0990910101682F70E0892F90E019
S11328000E94CC17CD2FC90F80914D010E94DF0982
S113281090910001682F70E0892F90E00E94CC17FE
S11328209C0F80910201292F30E0280F311D822F47
S1132830909176019130C9F4809173019091740163
S113284096958795929582958F7089279F70892791
S1132850E4E7F0E0BF01681B790B822F932F0E94FD
S1132860CC17BF010E940218862F0E94A80800FD01
S113287008C00E94AD07817090914F01890F809329
S11328804F0190914E0180914C01890F80934E012C
S11328900E94AD0765E20E94F61780914D01980FE2
S11328A090934D010E94AD078F7339F40E94AD07D8
S11328B06DE00E94F61790934C01809101018823EA
S11328C049F00E94AD078F7329F480910101815072
S11328D0809301010E94AD07811109C00E94AD07D8
S11328E062E10E94F6179093010110924E018091CB
S11328F00001833048F00E94AD078F7129F4809164
S113290000018150809300010E94AD07D82FDF772A
S113291071F40E94AD076AE00E94F61790930001DB
S113292007C0D0E005C0D0E003C0D1E001C0D0E0D2
S11329308D2FDF91CF911F910F9108950F931F93C6
S1132940CF93DF93C82F8B01D0910C0181E080934A
S11329507101D33019F48C2F0E947C13C83029F4F0
S113296081E08093040180E0B0C0C13C41F460E0A8
S113297070E086E29DE00E94130380E0A6C0C23CA2
S113298069F48D2F90E0019665E070E00E941618BE
S113299080930C010E94620B80E097C0C13BB1F5AB
S11329A0D230C8F400FD86C08D2F90E0FC01E65FB4
S11329B0FE4F208130910401231B283018F02F3F53
S11329C021F402C028E001C02EEFFC01E65FFE4FB7
S11329D0208380E07AC0D43009F06EC09091090160
S11329E080910401890F80930901823020F482E0F0
S11329F08093090105C0893718F088E7809309019D
S1132A00809109010E94A80880E05FC0C13E49F49A
S1132A10809104018195809304010E94620B80E0FF
S1132A2054C0C23B29F581E080930401D23088F47C
S1132A3000FD44C08D2F90E0FC01E65FFE4F208135
S1132A402F3FF1F1FC01E65FFE4F2F5F208380E012
S1132A503CC0D430B9F580910901833018F081501D
S1132A6080930901809109010E94A80880E02DC08B
S1132A70C23E21F40E94620B80E027C0C53C59F499
S1132A8060E070E08AE695E10E94130380E00E9412
S1132A90A80880E01AC0C130B9F40932110519F44C
S1132AA081E08093040180917F01080F00937F01EE
S1132AB080E00BC080E009C080E007C080E005C072
S1132AC080E003C080E001C081E0DF91CF911F91DD
S1132AD00F9108950F931F93CF93DF93C82F8B010A
S1132AE0883039F480917101813019F48C2F0E945F
S1132AF09E148C2F8079803961F481E08093700179
S1132B00D0917101D11129C080911D010E94A808A2
S1132B1029C0803839F41092700180E00E94A8081E
S1132B20D0E020C0C130D9F4D0917001DD2351F040
S1132B30809171018130A9F4B8018C2F0E949E14F8
S1132B40D82F10C00733114068F081E080938101D1
S1132B5060E080E00E94680C05C0D0E003C0D1E0D2
S1132B6001C0D0E08D2FDF91CF911F910F91089577
S1132B700E94140D0E94E00581110E943F130E94DF
S1132B80F40A80917C01811180931D0160E070E062
S1132B9085EE9FE00E94CD0261E070E086E29DE058
S1132BA00E94CD020895EF92FF920F931F93CF934B
S1132BB0DF938091AB019091AC0122E08A379207B8
S1132BC0C9F40EC0EC2FF0E0E059FF4F849180531C
S1132BD00E942C0A8CE291E00E94F909CF5F01C0A7
S1132BE0C0E0CC3078F360E070E086E29DE00E94C3
S1132BF06A0329C124E18E39920779F025E18A36E6
S1132C00920709F0CAC020917101213009F0C5C0B2
S1132C1020917001222309F4C0C0C0910C01C2307C
S1132C2031F120F0C43009F496C00DC1EC2FF0E06E
S1132C30E65FFE4FD08186E90E94A808C1110AC050
S1132C40DA3218F40E949E020AC081E090E00E94E9
S1132C50F90905C08D2F869590E00E94F90980E05E
S1132C600E94A8088D2F90E00E94F909ECC00E94F0
S1132C70AD078F73082F10E00E94AD0767E00E9434
S1132C80F617EE24E394F12CE70102C0CC0FDD1F0C
S1132C909A95E2F70E94AD0765E00E94F61702C01C
S1132CA0EE0CFF1C9A95E2F7CE0DDF1D0E94AD07D6
S1132CB090E0BE010E941618C80FD91FC739D1056C
S1132CC010F0C6E9D0E08C2F0E94A808C8010E9429
S1132CD0F909CE019595879595958795959587954D
S1132CE0F82E81111AC0FF24F39417C0C8010E9462
S1132CF0F909CF19D10912F4C0E0D0E08C2F0E9459
S1132D00A8080E94AD07837041F4C8010E94F90924
S1132D10CE01959587950E94A808C230D10534F755
S1132D200E94AD076DE00E94F617C1E0D0E002C03A
S1132D30CC0FDD1F9A95E2F70E94AD0790E0BE012B
S1132D400E940218C80FD91F80E00E94A808CE0173
S1132D500E94F90978C0D0910901DD0FD73908F034
S1132D60D6E9C0E010C08D2F0E94A80885E090E04D
S1132D700E94F909809109010E94A80881E490E069
S1132D800E94F909CF5FC43070F380ED92E00E9495
S1132D90F90980E00E94A80856C023E08432920713
S1132DA091F40E94720A80911C01882339F060E03A
S1132DB070E086E29DE00E946A0345C088EE93E0DD
S1132DC00E94F90940C023E08A34920749F48091B3
S1132DD0AE010E944E0A88EE93E00E94F90933C0C6
S1132DE08E5C9E4071F58091B10181112CC080915F
S1132DF01D010E94A80884E690E00E94F90980E081
S1132E000E94A80880910D0190E09C01220F331FBD
S1132E1022953295307F3227207F3227281B390BA9
S1132E20220F331F220F331F820F931F880F991F06
S1132E30880F991F880F991F845691090E94F909D8
S1132E4002C00E94F906DF91CF911F910F91FF906C
S1132E50EF900895F89485B7877F85BF88ED90E05B
S1132E600FB6F894A8958FBD90B7977F90BF0FBE0B
S1132E7081E088B998E09CB99FE790BB92EA90936F
S1132E80720091E19093710091E89BBB8ABB8FEF34
S1132E9091E0909369008093680080E882BB87BDCD
S1132EA08CB788608CBF0E94CD0586E884B91092E7
S1132EB088011092890183B1886483B9E1E6F0E066
S1132EC080818260808382B1886082B987EE83B911
S1132ED0789481E00E942C0460E070E084EC97E137
S1132EE00E94CD0210927E010E94B8150E94E30355
S1132EF08091B2019091B301009751F06091B401B7
S1132F007091B5010E9413031092B3011092B201A3
S1132F1080918101882329F080E00E94A8080E9402
S1132F20A3060E94EE0910927E010E94D315DECF03
S1132F308091AB019091AC0124E18E39920739F470
S1132F4069E170E082EC90E10E9413030895825CD1
S1132F50904199F490918001923040F0892F8695A8
S1132F6096959695890F0E94EF0A089560E070E0A7
S1132F7086E29DE00E941303089560E070E086E21B
S1132F809DE00E9413030895843021F40E94981751
S1132F9080E0089581E008950024552704C0080EB8
S1132FA0591F880F991F009729F076956795B8F3F4
S1132FB07105B9F7802D952F0895EE27FF27AA27CD
S1132FC0BB2708C0A20FB31FE41FF51F220F331F36
S1132FD0441F551F969587957795679598F370408C
S1132FE0A9F7009799F7BD01CF010895991B79E0DE
S1132FF004C0991F961708F0961B881F7A95C9F785
S113300080950895AA1BBB1B51E107C0AA1FBB1FD3
S1133010A617B70710F0A61BB70B881F991F5A9560
S1133020A9F780959095BC01CD01089597FB072ED3
S113303016F4009407D077FD09D00E94021807FC0B
S113304005D03EF4909581959F4F089570956195B4
S11330507F4F0895A1E21A2EAA1BBB1BFD010DC0D0
S1133060AA1FBB1FEE1FFF1FA217B307E407F50734
S113307020F0A21BB30BE40BF50B661F771F881F10
S1133080991F1A9469F760957095809590959B01A6
S1133090AC01BD01CF010895E199FECF1FBA8EBBEB
S11330A0E09A99278DB30895262FE199FECF1FBA90
S11330B08EBBE09A81500DB2021639F01CBA2DBBBA
S11330C00FB6F894E29AE19A0FBE0895F894FFCFF0
S11330D00A1218010101010004822943030237186E
S11330E00107058282820A0A0A820A0201461580C1
S11330F02D07021601130110010201000000000057
S11331000000010000000000000000010000210197
S10F311023022503270429052C06FF06D2
S9030000FC
